:0300000002079F55
:0C079F00787FE4F6D8FD7581630207E660
:100AB5002E2E2EB3E4B5E7D6D02E2E2E00BDF8B6D9
:100AC500C8A3BA00B3E4B5E7CDEAB3C900D0A1B372
:0A0AD500B5D7BCB1B8C6F4B6AF0047
:100B730001080602300000020900000432000000F0
:010B83000071
:070A5E001209CB7F057E00A9
:100A6500E4FDFCC3ED9FEE6480F8EC6480985015BE
:100A7500E4FBFA0BBB00010AEB646E4A70F50DBD91
:050A850000010C80DE01
:010A8A002249
:100B0800E4FDFCC3ED9FEE6480F8EC64809850151A
:100B1800E4FBFA0BBB00010AEB64014A70F50DBD5A
:050B280000010C80DE5D
:010B2D0022A5
:1009B700EC24B0FFE433FE1209CB7F107E0012094E
:0409C700CBE4FFFE80
:1009CB00C2A6C2E9E4FDC291EF30E704D2928002E5
:1009DB00C29200D29100C291EF25E0FFEE33FE0DE3
:0509EB00BD08E3D2A6E7
:0109F00022E4
:030ADF00FF7E0097
:100AE200C2A6D2E9E4FDC291EF30E704D2928002BD
:100AF200C29200D29100C291EF25E0FFEE33FE0DCB
:050B0200BD08E3D2A6CE
:010B070022CB
:10082B00C2A77F647E00120A65D2A7120A657FE217
:10083B00120A5E7F2C1209CB7F327E00120A657F73
:10084B002E1209CB7F327E00120A657F2F120A5EB1
:10085B007FA21209CB7FA07E001209CB7FC87E003E
:10086B001209CB7FA67E001209CB7FF81209C37F3A
:10087B002F7E001209CB7F267E001209CB7F817E53
:10088B00001209CB7F087E001209CB7FAF7E0002DE
:02089B0009CB87
:0609F100FFE433FE7C0070
:1009F700AB05AA04EB1B70011AEF24AFFFE43EFE20
:100A07001209CBEAC4F854F0C8EBC4540F48540F8A
:100A17002410FFE433FE1209CB7E00EB540FFF02D4
:020A270009CBF9
:100B5D00E4FC1209B7E4FBE4FFFE120AE20BBB84CE
:050B6D00F60CBC09EDCF
:010B72002260
:100B4600E4FC1209B7E4FB7FFF7E00120AE20BBB4E
:060B560084F50CBC09EC63
:010B5C002276
:090A2900FEE4FD7808FC12043D16
:020A32008F56DD
:100A3400E4F9C2917F0A7E00120B08E55630E70400
:100A4400D2928002C292E55625E0F556D2917F0AF1
:090A54007E00120B0809B908D953
:010A5D002276
:100B2E00E4FFFEC291EF25E0FF3093030F8000D269
:070B3E00910EBE08EEC29308
:010B4500228D
:0808FF008F528E518D508C4F79
:10090700C2A57F03120A32E4FFFEE550FDE478102A
:10091700120A2EE4FFE551120A29E552FF120A32A4
:10092700E4FC120B2E8F55740B2CF8A6550CBC202B
:10093700F1D2A5E4F9E92553AD541209F1E9C454FC
:10094700F02C240BF8E6F555120ADF0CBC10EE0963
:03095700B902E200
:01095A00227A
:08089D008F528E518D508C4FDB
:1008A500C2A57F03120A32E4FFFEE550FDE4FC78A1
:1008B5001012043D120A32E4FFE551120A29E552ED
:1008C500FF120A32E4FC120B2E8F5574392CF8A650
:1008D500550CBC10F1D2A5E4F9E92553AD54120924
:1008E500F1E4E975F008A42C2439F8E6F555120A67
:0908F500DF0CBC08ED09B902E0BA
:0108FE0022D7
:08095B008F5A8E598D588C57FC
:10096300C2A57F03120A32E4FFFEE558FDE4FC78DA
:100973001012043D120A32E4FFE559120A29E55A1E
:10098300FF120A32E4FC120B2E8F5D742B2CF8A697
:100993005D0CBC05F1D2A5AF5B7E00AD5C7C0012A3
:1009A30009F7742B2CF8E6F55DFF7E00120AE20CC2
:0309B300BC05EF91
:0109B600221E
:0604A5007BFF7D017F03D7
:0A04AB008F498D4A8B4B8A4C894D16
:1004B500E4F54EAB4BAA4CA94D854E8275830012CF
:1004C500036BFFD394005003020639EF94B0404606
:1004D500EFD394F75040854E82758300A312036BCA
:1004E500C394A14031854E8275830012036B24505D
:1004F500FFE434FFFE7C007D5E120398E48F358EA9
:1005050034F533F532854E82F583A312036B24ADA2
:10051500FFE43402805FAB4BAA4CA94D854E827532
:10052500830012036BFFC394A150030205BAEFD3F6
:1005350094A340030205BA854E82758300A3120376
:100545006BC394A1406F854E8275830012036B24A3
:100555005FFFE434FFFE7C007D5E120398E48F3577
:100565008E34F533F532854E82F583A312036B2461
:100575005FFFE434FFFEE4FDE5352FF535E5343E58
:10058500F534ED3533F533EC3532F532AF35AE3480
:10059500AD33FCE47B20FAF9F81203E08F358E3495
:1005A5008D338C32854953854A541208FF054E0513
:1005B5004E74108073AB4BAA4CA94D854E82758342
:1005C5000012036BFFC394204065EFD3947E505F08
:1005D500854E8275830012036B24E0FFE434FFFE31
:1005E500E48F358E34F533F532AD33AC327B10FA0A
:1005F500F9F81203E08F358E348D338C32E53524CE
:1006050080F535E53434CFF534E5333403F533E49B
:100615003532F532AF35AE34AD33FC854953854AB5
:100625005412089D054E7408254AF54A0204B8057A
:040635004E0204B8B5
:01063900229E
:0A070E008F5E8D5F8B608A61896247
:10071800E4F563AB60AA61A9628563827583001200
:10072800036BFFD39400406EEF94204064EFD394A2
:100738007E505E85638275830012036B24E0FFE4BC
:1007480034FFFEE48F358E34F533F532AD33AC32F9
:100758007B08FAF9F81203E08F358E348D338C322A
:10076800E53524C0F535E53434BFF534E5333403D5
:10077800F533E43532F532AF35AE34AD33FC855E52
:100788005B855F5C12095B05637406255FF55F8016
:0607980082056302071B4D
:01079E002238
:10063A00758901758C4CE4F58AD2AFD2A9D28CC2E5
:10064A009412082B120B5D7A0A79B51204A57BFF66
:10065A007A0A79C27D017F051204ABE508D39400BA
:10066A00406AAC08E41202B6E4FBFA79C078401298
:10067A00020FE4FBFA79C87842120106A804A90518
:10068A00AA06AB07E4FFFE7DC87C421200111202E3
:10069A00EA8E098F0A7C007D0A1203AAEF2430F53C
:1006AA0036AE09AF0A7C007D0A1203AAED2430F5A2
:1006BA00377538257B007A0079367D017F07120469
:1006CA00AB7FE87E03120A65C2A3808FE508703308
:1006DA00F508120B5D7A0A79C91204A57BFF7A0A1A
:1006EA0079D27D017F051204AB7FE87E03120A6589
:1006FA00C2A4120A65D2A3120A65D2A4120B5DD251
:04070A009480FE22B7
:03000B00020A8B5B
:100A8B00C0E0C0D0758C4C758A000531E531700221
:100A9B00053064144530700DF530F531E508D3940D
:0A0AAB000040021508D0D0D0E03260
:10000E00020356E86480F8E933E83360110460F0C7
:10001E00ED33EC337009E8FCE9FDEAFEEBFF220458
:10002E0060DED3EB9FEA9EE99DE8C2E78CF0C2F753
:10003E0095F0400CE8CCF8E9CDF9EACEFAEBCFFB1F
:10004E0012032185D0F05804700320D5B3E8047054
:10005E00075002B2D502036092D5EC0460F7E4CCEF
:10006E00C0E0C398F8603B94186008400DD0E0FBE8
:10007E00020338E4FBFAC9FC8028E830E406E4C940
:10008E00FBE4CAFCE830E305E4C9CACBFCE854073C
:10009E006010F8C3E913F9EA13FAEB13FBEC13FC47
:1000AE00D8F130F52FC3E49CFCEF9BFFEE9AFEEDEA
:1000BE0099FDD0E0FBEF4E4D4C701222DB03020394
:1000CE005DEC2CFCEF33FFEE33FEED33FDED30E750
:1000DE00EB020338EF2BFFEE3AFEED39FDD0E0FBDD
:1000EE0050130BBB0003020360ED13FDEE13FEEF86
:0800FE0013FFEC13FC020338B0
:10010600EC4D6011E8497017ED33EC3304600DE4F3
:10011600FCFFFEFD22E933E8330470F802035612B1
:10012600032158046009E4CC2481500628500902B2
:10013600036028400302035DC0E0EB4A7044B980C7
:1001460006D0E0FB02034CEF4E701CBD8008EBFFAF
:10015600EAFEE9FD80EBE98DF0A4FEE5F00201EF91
:10016600E9CDF9EAFEEBFFEF89F0A4FCE5F0CE89D4
:10017600F0A42EFFE435F0CD89F0A42DFEE435F091
:100186008067EF4E7005BD80D780C3EF8BF0A4ACBF
:10019600F0EE8BF0A42CFCE435F0F8EF8AF0A42CFA
:1001A600E5F038FCE433CB8DF0A42CFCE5F03BF80D
:1001B600EE8AF0A42CFCE5F038F8E433CF89F0A4FD
:1001C6002CFCE5F038CF3400CE89F0A42FFFE5F003
:1001D6003EFEE433C98DF0A42EFEE5F039CD8AF05B
:1001E600A42FFFE5F03EFEE43DFD33D0E0FB5007D3
:1001F6000BBB000F020360EC2CFCEF33FFEE33FE6B
:06020600ED33FD02033898
:10020C00020360EC5D046005E859047003020356B8
:10021C00120321580460F6EC4860F2EC7004FDFE09
:10022C00FF22C860DB2481C85009C39860025006C5
:10023C0002035D9850CAF582E9294B4A7005AB82DE
:10024C0002034C75F0007C1A7880C3EF9BEE9AED9C
:10025C0099400DC3EF9BFFEE9AFEED99FDE842F03D
:10026C00DC23ACF0D0E0FFD0E0FED0E0FDAB822090
:10027C00E7101BEB60BAEC2CFCEF33FFEE33FEED1A
:10028C0033FD020338E803F830E705C0F075F000E1
:10029C00EF2FFFEE33FEED33FD40B830E7C280AAFE
:1002AC0075F020800E75F010800575F0087D007ECD
:1002BC00007F003392D530D50312042FEC3340105D
:1002CC00EF33FFEE33FEED33FDEC33FCD5F0ED22D6
:0E02DC00E5F0247EA2D513CC92E7CDCEFF2212
:1002EA00EDD2E7CD33EC3392D524814006E4FFFE0C
:1002FA00FDFC22FCE4CFCECDCC24E0501174FF806B
:10030A00EDC3CC13CCCD13CDCE13CECF13CF047007
:07031A00F030D5DE02042FD4
:10032100E9D2E7C933E833F892D5EDD2E7CD33EC22
:0703310033FC5002B2D5229B
:10033800EC30E7100FBF000C0EBE00080DBD000426
:100348000BEB6014A2D5EB13FCED92E7FD2274FFD2
:10035800FCFDFEFF22E480F8A2D574FF13FC7D802B
:03036800E480EF3F
:1007AB0002063AE493A3F8E493A34003F68001F224
:1007BB0008DFF48029E493A3F85407240CC8C3334F
:1007CB00C4540F4420C8834004F456800146F6DF1E
:1007DB00E4800B0102040810204080900B73E47E30
:1007EB00019360BCA3FF543F30E509541FFEE49313
:1007FB00A360010ECF54C025E060A840B8E493A3DA
:10080B00FAE493A3F8E493A3C8C582C8CAC583CA04
:10081B00F0A3C8C582C8CAC583CADFE9DEE780BEBC
:010B84000070
:10036B00BB010CE58229F582E5833AF583E0225047
:10037B0006E92582F8E622BBFE06E92582F8E22291
:0D038B00E58229F582E5833AF583E49322AB
:10039800EF8DF0A4A8F0CF8CF0A428CE8DF0A42E79
:0203A800FE2233
:1003AA00C2D5EC30E709B2D5E4C39DFDE49CFCEE6E
:1003BA0030E715B2D5E4C39FFFE49EFE120450C392
:1003CA00E49DFDE49CFC800312045030D507C3E48D
:0603DA009FFFE49EFE22DD
:1003E000E88FF0A4CC8BF0A42CFCE98EF0A42CFCBC
:1003F0008AF0EDA42CFCEA8EF0A4CDA8F08BF0A43A
:100400002DCC3825F0FDE98FF0A42CCD35F0FCEB98
:100410008EF0A4FEA9F0EB8FF0A4CFC5F02ECD395D
:0F042000FEE43CFCEAA42DCE35F0FDE43CFC22CA
:0E042F00C3E49FFFE49EFEE49DFDE49CFC22DE
:10043D00E8600FECC313FCED13FDEE13FEEF13FF9D
:03044D00D8F122C1
:10045000BC000BBE0029EF8DF084FFADF022E4CC90
:10046000F875F008EF2FFFEE33FEEC33FCEE9DEC59
:10047000984005FCEE9DFE0FD5F0E9E4CEFD22ED9F
:10048000F8F5F0EE8420D21CFEADF075F008EF2FE9
:10049000FFED33FD4007985006D5F0F222C398FDDA
:0504A0000FD5F0EA2277
:00000001FF
