:03000000020800F3
:0C080000787FE4F6D8FD758110020847EF
:0A0936003F065B4F666D7D077F6F83
:0709400001080A0209000092
:100922008F0DE50DD39400400A750E7DD50EFD1591
:040932000D80EF2223
:1008C700D2A0EF90093693F580C2A07580FFD2A120
:1008D7007580FEC2A17FF4120922D2A0ED93F580A4
:1008E700C2A07580FFD2A17580FDC2A17FF4020965
:0108F70022DE
:10088C00C2A6758901758C4C758AD0D2AFD2A9D20B
:10089C008CC290E508700AF508F50FF510D2A6C2C7
:1008AC00A2E50875F00A84F50FE50875F00A848551
:0B08BC00F010AD10AF0F1208C780D67F
:03000B000208F8F0
:1008F800C0E0C0D0758C4C758AD0050AE50A700234
:10090800050964144509700DF509F50AE508D3943D
:0A0918000040021508D0D0D0E032F4
:10080C0002088CE493A3F8E493A34003F68001F26E
:10081C0008DFF48029E493A3F85407240CC8C333ED
:10082C00C4540F4420C8834004F456800146F6DFBC
:10083C00E4800B0102040810204080900940E47E03
:10084C00019360BCA3FF543F30E509541FFEE493B1
:10085C00A360010ECF54C025E060A840B8E493A378
:10086C00FAE493A3F8E493A3C8C582C8CAC583CAA3
:10087C00F0A3C8C582C8CAC583CADFE9DEE780BE5B
:0109470000AF
:00000001FF
