:03000000020D8569
:0C0D8500787FE4F6D8FD758145020DCCA6
:08000300120F3F120F2980FECD
:100F0900E4FDFCC3ED9FEC9E5015E4FBFA0BBB001E
:0F0F1900010ABA03F8BBA2F50DBD00010C80E47C
:010F280022A6
:100F2900758920759850758DFD858D8BE4F587D26F
:060F3900AFD2ACD28E2203
:080F5C008F993099FDC2992222
:03002300020CEEDE
:100CEE00C0E0C0F0C083C082C0D075D000C000C0CC
:100CFE0001C002C003C004C005C006C00730985A28
:100D0E00C29885991FE51F24CF602524CF602E241D
:100D1E00FC602524FA602B24FA602C14602E1460DB
:100D2E003224427037753F00754001753EFF801FBB
:100D3E00753F007540008017120F648012120F6805
:100D4E00800D120F6C8008120F708003120F74AF9B
:100D5E001F8002AF3E120F5C8002C299D007D006F0
:100D6E00D005D004D003D002D001D000D0D0D08294
:070D7E00D083D0F0D0E03279
:100EB100021A000A021C000A0215000002180000B2
:040F6400E4F514227A
:040F680075140122D9
:040F6C0075140222D4
:040F700075140322CF
:040F740075140422CA
:03000B00020A7274
:100A7200C0E0C0F0C083C082C0D075D000C000C04A
:100A820001C002C003C004C005C006C007C28C7505
:100A92008CFF758AD2D28C051E0517E51EC394649D
:100AA200400A751E00AF40AE3F120B79E517C394A2
:100AB200644003751700AF1E7E00D3EF951BEE95C1
:100AC2001A5008751500751601800FD3EF951BEEAD
:100AD200951A4006751500751600AF177E00D3EF04
:100AE200951DEE951C5008751800751901800FD3DD
:100AF200EF951DEE951C4006751800751900E5145A
:100B02001460191460221460351460482404704C77
:100B1200E515451624FF92A6C2A5802CC2A6E515AE
:100B2200451624FF92A5800AE515451624FF92A6D4
:100B3200C2A5C2A3E518451924FF92A1801EC2A630
:100B4200E515451624FF92A5E518451924FF92A341
:100B5200C2A18008C2A6C2A5C2A3C2A1D007D00664
:100B6200D005D004D003D002D001D000D0D0D082A2
:070B7200D083D0F0D0E03287
:100F3F00758901758CFF758AD2D2AFD2A9D28C2256
:10000E0041444320544553543A25662C25662C25ED
:02001E0066007A
:100EC100040800000000040C0000000004100000F1
:020ED10000001F
:100E11007F13120F4FE4FF120E718F0B8E0A8D0993
:100E21008C087F01120E718F0F8E0E8D0D8C0C7F31
:100E310004120E718F138E128D118C107FE87E03B8
:100E4100120F097BFF7A00790E850B28850A278509
:100E51000926850825850F2C850E2B850D2A850CE5
:100E61002985133085122F85112E85102D020665D7
:100C5000E4FFFE7DE17C43AB0FAA0EA90DA80C12A8
:100C6000012C6011400F751A00751B1E751C007554
:100C70001D1E020F64E4FFFE7DAF7C43AB13AA127E
:100C8000A911A81012012C60294027751A00751BA4
:100C90001E751C00751D1E120F6CE4FFFE7DAF7CDF
:100CA00043AB13AA12A911A81012012C603F403DBA
:100CB00080E8E4FFFE7DC87C43AB0BAA0AA909A823
:100CC0000812012C60274025751A00751B1E751C23
:100CD00000751D1E120F70E4FFFE7DC87C43AB0B38
:0E0CE000AA0AA909A80812012C600250EA22F3
:0D0F4F008F9DE4F5BD75BC80000000002200
:100E7100E4FDFCEF4488F5BC00000000E5BC30E473
:100E8100FB53BCEFAFBD7C00AD07ED7E007802C324
:100E910033CE33CED8F9FFE5BE5402FDEEFCEF4D63
:100EA100FDFFE41201AAE4FBFA79A07840020026D2
:0E0ED300023F00000241000001430001440004
:100B7900EF4E6003020C4FE58044E0F53E1205DDBF
:100B89000BF5E00BC6E30BC1E70BBCEF0BF0F10B68
:100B9900CBF30BB7F70BDBF80BE0F90BEBFB0BD641
:100BA900FC0BE5FD0BD1FE0BF8FF00000C4F754364
:100BB900018012754302800D754303800875430453
:100BC9008003754305020F6C754401801275440258
:100BD900800D75440380087544048003754405023B
:100BE9000F70754501805C7545028057020F74E5E9
:100BF9004364016017E54364026011E543640360DF
:100C09000BE54364046005E543B40506E4F54312C6
:100C19000F6CE54464016017E54464026011E54422
:100C29006403600BE54464046005E544B40506E427
:100C3900F544120F70E54564016005E545B4020607
:070C4900E4F545120F6422DF
:10002600EC4D6011E8497017ED33EC3304600DE4D4
:10003600FCFFFEFD22E933E8330470F802021812D1
:1000460001E358046009E4CC2481500628500902D3
:10005600022228400302021FC0E0EB4A7044B98026
:1000660006D0E0FB02020EEF4E701CBD8008EBFFCF
:10007600EAFEE9FD80EBE98DF0A4FEE5F002010F52
:10008600E9CDF9EAFEEBFFEF89F0A4FCE5F0CE89B5
:10009600F0A42EFFE435F0CD89F0A42DFEE435F072
:1000A6008067EF4E7005BD80D780C3EF8BF0A4ACA0
:1000B600F0EE8BF0A42CFCE435F0F8EF8AF0A42CDB
:1000C600E5F038FCE433CB8DF0A42CFCE5F03BF8EE
:1000D600EE8AF0A42CFCE5F038F8E433CF89F0A4DE
:1000E6002CFCE5F038CF3400CE89F0A42FFFE5F0E4
:1000F6003EFEE433C98DF0A42EFEE5F039CD8AF03C
:10010600A42FFFE5F03EFEE43DFD33D0E0FB5007B3
:100116000BBB000F020222EC2CFCEF33FFEE33FE8A
:06012600ED33FD0201FAB9
:10012C0074F8CC6480CCC86480C8F58204604FC37A
:10013C00EB9FF5F0EA9E42F0E99D42F0E89C45F019
:10014C00603C501DE5825FFFE582D313CB5BCBF4A3
:10015C002B5582FB50280ABA002409B900200880CC
:10016C001DE5825BFBE582D313CF5FCFF4C3132F66
:10017C005582FF50090EBE00050DBD00010CC3EBEE
:10018C009FF5F0EA9E42F0E99D42F0E89C45F06054
:09019C0007CC4820E701B3EC2276
:1001A50075F020800E75F010800575F0087D007ED5
:1001B500007F003392D530D5031205BFEC334010D4
:1001C500EF33FFEE33FEED33FDEC33FCD5F0ED22DE
:0E01D500E5F0247EA2D513CC92E7CDCEFF221A
:10060300E5392425F8E605392278223007027825D2
:10061300E475F0011205CD0205672000EB7F2ED2B1
:10062300008018EF540F2490D43440D4FF30040BCF
:10063300EF24BFB41A0050032461FFE53A600215AA
:100643003A053DE53D7002053C30070D7822E4751F
:10065300F0011205CDEF0205AD020EE27403D207DD
:100663008003E4C207F5398B228A238924E4F53A0F
:10067300F53CF53DE53A60077F2012063E80F575AF
:100683003BFFC201C200C202C203C205C206C208C6
:1006930012060CFF700D3007057F0012064FAF3DA9
:1006A300AE3C22B4255FC2D5C20412060CFF24D08F
:1006B300B40A00501A75F00A783A30D50508B6FF27
:1006C3000106C6A426F620D5047002D20380D924DD
:1006D300CFB41A00EF5004C2E5D20402093CD201A0
:1006E30080C6D20080C0D20280BCD2D580BAD205E7
:1006F30080B47F2012063E2002077401B53A004001
:10070300F1120603FF12063E020677D208D20680D4
:1007130095120603FB120603FA120603F94A4B70FD
:100723000679337A0A7BFF20022EE53A602A7E009F
:100733008E8275830012058060060EEE653B70F0B5
:10074300C2D5EBC0E0EAC0E0E9C0E0EE12099CD0FC
:10075300E0F9D0E0FAD0E0FB120567FF60AAEBC036
:10076300E0EAC0E0E9C0E012063ED0E02401F9D09F
:10077300E03400FAD0E0FBE53B0460DCD53BD980F4
:1007830087D20280A212097F60F7E53B7001041251
:10079300022DA93B600DE53B600914F53B120A26C7
:1007A300EF60F3EA30E702F404C3995077EAF425E3
:1007B3003B0430E701E404F53B800D12097F60C17F
:1007C300EA053B253B12022DEA7838F630E701E4CF
:1007D300253B04D53B042005011412099CE4C0E029
:1007E300120A267838E6601320E70714F612062665
:1007F300802204F6D0E014C0E07F00120626E53B19
:10080300600712061D153B800B30050312061DD031
:10081300E0020677D0E00480C512097F60A0E53BC3
:100823000412022D7838EAF6E53B20050260010444
:05083300240412099CE1
:1008380074FF04C0E0120A26120626E53B200502D2
:10084800600312061DD0E0B53BE87F4512063078FC
:1008580038E67F2B30E7047F2DF404C0E012063E13
:10086800D0E075F00A84C0F0120627D0E0120627FF
:10087800020677791080027908C206C2088008D279
:10088800D5790A8004790AC2D5E53B047002F53BA4
:10089800E4FAFDFEFF120603FC7B08200113120692
:1008A80003FD7B1030000A120603FE120603FF7BCD
:1008B80020EC3382D592D55013C3E43000069FFF55
:1008C800E49EFEE42001039DFDE49CFCE4CBF8C219
:1008D80001EC700CCFCECDCCE824F8F870F380177B
:1008E800C3EF33FFEE33FEED33FDEC33FCEB33FBAC
:1008F800994002FB0FD8E9EB300105F8D0E0C44875
:10090800B201C0E00AEC4D4E4F78207B0070C2EA7D
:10091800B53B0040BCC0E012099ED0F0D0E02001F9
:1009280004C4C0E0C4B201C0F0120627D0F0D5F06C
:10093800EB0206771205DD071453087B5806E54CD1
:1009480006E142087F4F08874408874906FA4308AA
:100958008D5507BE46081C450788470A535006E9C7
:100968002D06ED2E07102B06F123070E200A3C2A30
:1009780006A94800000708E53BB4FF03753B0612CB
:100988000603FC120603FD120603FE120603FF7897
:100998003102025C790AA2D5200314300509B91086
:1009A800020404B9080104A2D5200602500104205B
:1009B80002689202B53A005034C0E07F2030031933
:1009C8007F30A20272067205500F1209F5C202C2E8
:1009D80006C205C2087F30800F300503E9C0E01267
:1009E800063E300503D0E0F9D0E0B53ACC30051723
:1009F8007F30B9100C12063E7F583004077F78808C
:100A080003B9080312063E3002057F2D02063E7F19
:100A1800202008F87F2B2006F322920280CF7F0047
:100A2800B4070050052431F8E6FF22286E756C6C77
:100A38002900D2011206033001F8C201783A30D5F4
:100A48000108F60206A92D5043495812060324034B
:100A5800B405004001E4900A4E9312062F743A122E
:0A0A6800062FD203753A0402087B42
:1001E300E9D2E7C933E833F892D5EDD2E7CD33EC62
:0701F30033FC5002B2D522DB
:1001FA00EC30E7100FBF000C0EBE00080DBD000466
:10020A000BEB6014A2D5EB13FCED92E7FD2274FF11
:10021A00FCFDFEFF22E480F8A2D574FF13FC7D806A
:03022A00E480EF7E
:10022D00F920E72824F950037907E4F42402FB1898
:10023D00DBFDE624FB5014E9600DE4F618E604F648
:0F024D00B40A08E4F6D9F57401F60A22C2D522E4
:10025C00ED33EC3392D5FA602AB4FF33EDC2E77B71
:10026C00FF60067A027981E4227A02798A20D50429
:10027C007A027985224E614E002B494E46002D495B
:10028C004E4600E47A08F608DAFC7B00740722E894
:10029C00C0E0ECC0E0EDC0E0EEC0E0EFC0E0EA751D
:1002AC00F010A4CAABF075F04DA42BFBE435F0FCB8
:1002BC00EA2410FAEB34C5FBEC34D9FCEDC2E7FFB1
:1002CC0075F056A4F42411C5F0F434C58FF0A42AAB
:1002DC00E5F03BE43CF620E714120527D0E0FFD014
:1002EC00E0FED0E0FDD0E0FC12045A8014F40412BD
:1002FC000527D0E0FFD0E0FED0E0FDD0E0FC1200FE
:10030C0026D0E0F8E6FAEDD2E7CD33EC332482FBCD
:10031C00E4C3CF33CFCE33CECD33CD33DBF37B073A
:10032C0075F00A846004F6081B0AE5F0F6088FF0F5
:10033C00740AA4FFACF08EF0740AA42CFEACF0503E
:10034C00010C8DF0740AA42CFDE435F0F608DBDE0C
:03035C0074072201
:10035F00020218E86480F8E933E83360110460F0B2
:10036F00ED33EC337009E8FCE9FDEAFEEBFF220404
:10037F0060DED3EB9FEA9EE99DE8C2E78CF0C2F7FF
:10038F0095F0400CE8CCF8E9CDF9EACEFAEBCFFBCB
:10039F001201E385D0F05804700320D5B3E8047040
:1003AF00075002B2D502022292D5EC0460F7E4CCDA
:1003BF00C0E0C398F8603B94186008400DD0E0FB94
:1003CF000201FAE4FBFAC9FC8028E830E406E4C92C
:1003DF00FBE4CAFCE830E305E4C9CACBFCE85407E8
:1003EF006010F8C3E913F9EA13FAEB13FBEC13FCF3
:1003FF00D8F130F52FC3E49CFCEF9BFFEE9AFEED96
:10040F0099FDD0E0FBEF4E4D4C701222DB03020240
:10041F001FEC2CFCEF33FFEE33FEED33FDED30E739
:10042F00EB0201FAEF2BFFEE3AFEED39FDD0E0FBC8
:10043F0050130BBB0003020222ED13FDEE13FEEF70
:08044F0013FFEC13FC0201FA9B
:10045700020222EC5D046005E859047003020218E9
:100467001201E3580460F6EC4860F2EC7004FDFEFC
:10047700FF22C860DB2481C85009C3986002500678
:1004870002021F9850CAF582E9294B4A7005AB82D0
:1004970002020E75F0007C1A7880C3EF9BEE9AED8E
:1004A70099400DC3EF9BFFEE9AFEED99FDE842F0F0
:1004B700DC23ACF0D0E0FFD0E0FED0E0FDAB822043
:1004C700E7101BEB60BAEC2CFCEF33FFEE33FEEDCD
:1004D70033FD0201FAE803F830E705C0F075F000D4
:1004E700EF2FFFEE33FEED33FD40B830E7C280AAB1
:1004F7003F8000004120000042C80000447A00000D
:10050700461C400047C35000497424004B1896808E
:100517004CBEBC205A0E1BCA6753C21C749DC5AE85
:10052700FB60065407601C2323120555EB54386003
:1005370009120541120550120026ECF8EDF9EEFA02
:10054700EFCB22EB12055080F1543803241C9004A2
:10055700F7FE93FC0EEE93FD0EEE930ECE93FF2265
:100D9100020003E493A3F8E493A34003F68001F275
:100DA10008DFF48029E493A3F85407240CC8C33363
:100DB100C4540F4420C8834004F456800146F6DF32
:100DC100E4800B0102040810204080900EB1E47E03
:100DD100019360BCA3FF543F30E509541FFEE49327
:100DE100A360010ECF54C025E060A840B8E493A3EE
:100DF100FAE493A3F8E493A3C8C582C8CAC583CA19
:100E0100F0A3C8C582C8CAC583CADFE9DEE780BED0
:010EE1000010
:10056700BB010689828A83E0225002E722BBFE0292
:09057700E32289828A83E49322C5
:10058000BB010CE58229F582E5833AF583E0225030
:1005900006E92582F8E622BBFE06E92582F8E2227A
:0D05A000E58229F582E5833AF583E4932294
:1005AD00BB010689828A83F0225002F722BBFE012D
:0205BD00F32227
:0E05BF00C3E49FFFE49EFEE49DFDE49CFC224D
:1005CD00FAE6FB0808E6F925F0F618E6CA3AF6222F
:1005DD00D083D082F8E4937012740193700DA3A3AD
:1005ED0093F8740193F5828883E4737402936860C1
:0605FD00EFA3A3A380DFC1
:100EE200EFB40A07740D120EED740A309811A89926
:100EF200B8130CC2983098FDA899C298B811F63070
:070F020099FDC299F5992247
:00000001FF
